:020000040800F2
:1000000000280020A53700080D9800080D9800086A
:100010000D9800080D9800080D9800080D9800082C
:100020000D9800080D9800080D9800080D9800081C
:100030000D9800080D9800080D9800080D9800080C
:100040000D9800080D9800080D9800080D980008FC
:100050000D9800080D9800080D9800080D980008EC
:100060000D980008B93500083B9700080D98000866
:100070000D9800080D9800080D9800080D980008CC
:100080000D9800080D9800080D9800080D980008BC
:100090000D980008B94000080D9800080D98000858
:1000A0000D9800080D9800080D9800080D9800089C
:1000B0000D9800080D9800080D9800080D9800088C
:1000C0000D9800080D9800080D9800080D9800087C
:1000D0000D9800080D9800080D9800080D9800086C
:1000E0000D9800080D9800080D9800080D9800085C
:1000F0000D9800080D9800080D9800080D9800084C
:100100000D9800080D9800080D9800080D9800083B
:100110000D9800080D9800080D9800080D9800082B
:100120000D9800080D9800080D9800080D9800081B
:100130000D9800080D9800080D9800080D9800080B
:100140000D9800080D9800080D9800087D9B000888
:100150000D9800080D9800080D9800080D980008EB
:100160000D9800080D9800080D9800080D980008DB
:10017000013800D0FCE770472DE9F04F2DED048BDE
:10018000B0F840300546ADF6FC4DC3F3032206AE91
:1001900003928946324603F00F04C3F3031B1B0B83
:1001A0001E33049335F8423F059300F14E0335F8B2
:1001B000021F103201F00F0742F8107CC1F3031741
:1001C00042F80C7C9D42C1F303274FEA113142F8FB
:1001D000087C42F8041CEAD1002156F8042B0131B6
:1001E000072AC4BF103A46F8042C1829F5D11EADD1
:1001F0002A4600F15E0633F8021F103201F00F07A5
:1002000042F8107CC1F3031742F80C7C9E42C1F304
:1002100003274FEA113142F8087C42F8041CEAD166
:10022000002255F8043B0132072BC4BF103B45F8B0
:10023000043C202AF5D10123A34007EE903A002682
:10024000B8EEE78ADFED6C8A9FED659B00F17E04D6
:10025000A24600270DF1F80808EBC6153AF8023F50
:10026000B3EE0F7AC3F3051307EE903AF8EEE77A90
:10027000F4EEC77AF1EE10FAC8BF77EEE87A06AB73
:10028000039A53F82630C5ED007A9340059A95ED10
:10029000007A13441EAA52F82720013702FA0BF203
:1002A000134407EE903AF8EEE77A47EE087A17EE35
:1002B000900A07F01DF8CDE90001049806F0F6FF5A
:1002C000B0EE490AF0EE690A41EC110B02F000F8B9
:1002D000DDE9000153EC102B07F08CF907F042FB2D
:1002E00009F5805393ED957AD3ED947A77EE877A7A
:1002F00099ED067A06EE900A67EE877AB6EE007AF6
:1003000047EEC76A16EE900A06F0F2FF02460B4669
:1003100035A1D1E9000107F06DF907F023FB202F8B
:1003200045F8040B9AD10136182E04F140048FD100
:100330009DED3E8A01233FAAF2EC017AF4EE487A61
:10034000F1EE10FA03F1010337FE888AB3F5407F1E
:10035000F2D1002426A7D7E9006718EE100A06F0AC
:10036000C7FF32463B46651C07F08CFAA0BB9FEDE9
:100370001C8B0026214FE4B209F1480509F5C96A32
:10038000204606F093FFB0EE480AF0EE680A41EC12
:10039000110B58F804BB01F09BFF58468DED000B84
:1003A00006F0A6FFDDE9002306F0FAFF07F0DAFA0F
:1003B00006F09EFF32463B4606F03CFE07F0B2FADE
:1003C00025F8020FAA45DBD189F84A460DF6FC4D07
:1003D000BDEC048BBDE8F08F38EE088A2C46BCE7F4
:1003E00000000000000000408DEDB5A0F7C6B03E53
:1003F0009A999999D9FFDF40000080420000E03FC0
:100400002DE9F04F2DED048BB0F86C30ADF61C4D9E
:100410001A0A8DF81630B0F86E308DF814208DF869
:1004200017301A0AB0F870308DF81520C3F3031294
:100430000832039203F00F020123934007EE903A33
:1004400006AD8B46B8EEE78AAA464FF00009F0EEFB
:10045000088A9FED619B0DF1140800F18006574654
:100460004C46C4F3401304F0010202EB430236F899
:1004700014300134C3F3420307EE903AF8EEE77A02
:10048000F4EEE87AF1EE10FAC4BFB2EE007A77EE3D
:10049000C77AC7ED007A18F9023097ED007A07EEB7
:1004A000903AF8EEE77A47EE087A17EE900A06F0EF
:1004B0001FFFCDE90001039806F0F8FEB0EE490AEF
:1004C000F0EE690A41EC110B01F002FFDDE90001D9
:1004D00053EC102B07F08EF807F044FA09F12003D3
:1004E000A34247F8040BBCD1B4F5407F0AF1800A5F
:1004F00001D0A146B3E795ED008A0123B0EEC88A8A
:1005000007AAF2EC017AF0EEE77AF4EE487AF1EE1F
:1005100010FA03F1010337FE888AB3F5407FF0D16A
:1005200000242FA7D7E9006718EE100A06F0E0FEB6
:1005300032463B4604F1010807F0A4F900283ED1F9
:100540009FED258B4FF00008DFF89C90E4B20BF68E
:100550004B460BF64B77204606F0A8FEB0EE480A55
:10056000F0EE680A41EC110B55F804AB01F0B0FE57
:1005700050468DED000B06F0BBFEDDE9002306F0D2
:100580000FFF07F0EFF907EE900AF5EEC07AF1EEF3
:1005900010FA18D506F0ACFE42464B4606F048FD70
:1005A00007F098F940B206F8010FB742D3D18BF8A3
:1005B0004C4F0DF61C4DBDEC048BBDE8F08F38EEB2
:1005C000088A4446B0E706F093FE42464B4606F0E2
:1005D00031FDE5E7AFF300800000000000000040BF
:1005E0003333333333B34F400000E03F00000000AB
:1005F0002DE9F04F2DED028BB0F86830ADF6144DBB
:100600001A0BB3F5004F28BF103A1E0504AEB146D1
:100610004FF000089FED608B03AD52B22A70C3F318
:10062000032248BF103A0C46AA701906C3F30312FE
:1006300048BF103A6A7003F00F021B07B0F8703021
:1006400048BF103AEA70C3F3032BCA46002707EBF2
:100650000803C3F3401203F0010303EB4203E8561F
:10066000013707EE900AF8EEE77A17EE900A06F0E7
:100670003FFECDE90001584606F018FEB0EE480AEC
:10068000F0EE680A41EC110B01F022FEDDE90001F9
:1006900053EC102B06F0AEFF07F064F9202F4AF858
:1006A000040BD4D108F12008B8F5407F09F1800986
:1006B000CBD196ED008A0123B0EEC88A05AAF2ECF0
:1006C000017AF0EEE77AF4EE487AF1EE10FA03F1EF
:1006D000010337FE888AB3F5407FF0D100250FF281
:1006E000C009D9E9008918EE100A06F001FE424659
:1006F0004B466F1C07F0C6F8002842D19FED268BB1
:100700004FF0000804F5925ADFF89C90EDB204F621
:100710004C770AF10C0A284606F0C8FDB0EE480AEC
:10072000F0EE680A41EC110B56F804BB01F0D0FD65
:1007300058468DED000B06F0DBFDDDE9002306F0E9
:100740002FFE07F00FF907EE900AF5EEC07AF1EEF2
:1007500010FA1AD506F0CCFD42464B4606F068FC6E
:1007600007F0B8F840B207F8010FBA45D3D104F545
:10077000805484F84D520DF6144DBDEC028BBDE84B
:10078000F08F38EE088A3D46ADE706F0B1FD4246EF
:100790004B4606F04FFCE3E700000000000000407D
:1007A0003333333333B34F400000E03F00000000E9
:1007B0002DE9F04F2DED068B0C468146BBB000288D
:1007C00000F03F83002900F03C83B0F86630B3EEC0
:1007D0000F9A1A0AB3F5004F28BFA2F5807263F092
:1007E000FF0328BF92B25B015201A3F500530A80B8
:1007F0004B80B0F86430DFEDEC9A9A0A07EE902A4D
:10080000F8EEE77AF4EEC97AF1EE10FAC4BF9FED84
:10081000E77A77EEC77A9FEDE67AC3F3090367EECE
:10082000878A07EE903AB8EEE78AB4EEE98AF1EEED
:1008300010FAC8BFDFEDDF7AB0F86250008CC8BF95
:1008400038EE678A00F4704006F040FD0022DA4B73
:1008500006F0A6FD0022D94B06F0ECFB07F082F86B
:10086000A581B9F860309FEDD6AAA38299F87820C7
:10087000B9F8783007EE902AF8EEE77AF4EECA7A03
:10088000F1EE10FAC4BF9FEDCF7A77EEC77A9FEDF5
:10089000CE7A67EE877A1B0AC4ED067A07EE903AA5
:1008A000F8EEE77AF4EECA7A4FF6D873F1EE10FA62
:1008B000B9F87020C8BF9FEDC37AC2F3013284F843
:1008C0002420B9F87E202364B9F87E30C2F30132C7
:1008D00002EB82024FEA4202C3F30313A4F844304E
:1008E00013FB02F3B9F87E109BB2C1F30321A4F805
:1008F000443001FB0233A4F846304FF4C873A4F827
:1009000048304FF00103C8BF77EEC77A9FEDAF7A4A
:10091000B9F87E2067EE877A02F00F020832934022
:1009200099F87A20C4ED0A7A07EE102AB8EEC77A51
:1009300007EE903AB9F87A30C4ED018A1B0A84EDCB
:100940000B7AF4EE008A07EE103A28EE288AB8EE09
:10095000C77A84ED028A206184ED0C7A99F87C20B4
:10096000B9F87C3007EE102AB8EEC77A1B0A84ED7E
:100970000D7A07EE103AB8EEC77A9FED926A84EDD1
:100980000E7AF8EEE77A04F12C0304F13C02B3ECA2
:10099000017AB4EECA7AF1EE10FAC4BF37EE467AA5
:1009A00003ED017A53ED016A86EEA77A934203EDD7
:1009B000017AECD1B9F87420854BC2F3090596058C
:1009C00044BFA5F58065ADB2E363B2F5004F4FEAD1
:1009D000922328BF403BB9F872A028BF9BB20FFA00
:1009E00085F81D44CAF3090308EE103AB8EEC88A28
:1009F000B4EEE98AF1EE10FAC8BFDFED6E7AB9F80D
:100A00004000C8BF38EE678A000B1B3006F04EFC72
:100A10009FED630B41EC110B01F05AFC57EC106B8E
:100A200018EE100A06F064FC32463B4606F0E2FD82
:100A30004FEA9A2A06F096FF07EE90AAF8EEE77AB8
:100A400099F87630F4EEC97A08EE103AF1EE10FA21
:100A5000B8EEC88AC8BF9FED557AB4EECA8AC8BF3F
:100A600077EEC77AF7EE009A9FED5A7AF1EE10FA18
:100A700047EE879AC8BFDFED537AB9F870B00AEE37
:100A8000900ACBF3031000F10800C8BF38EE678A64
:100A900006F00CFC9FED420B41EC110BB9F876A06F
:100AA00001F016FC57EC106B18EE100A06F020FC53
:100AB00032463B4606F09EFD4FEA1A2A06F052FFE8
:100AC00007EE90AAB8EEE78AB4EECA8AF1EE10FA01
:100AD000C8BFDFED3C7A2062CBF30320C8BF38EEFD
:100AE000678A06F0E3FB9FED2E0B41EC110B01F042
:100AF000EFFB57EC106B18EE100A06F0F9FB3246CC
:100B00003B4606F077FD06F02DFF69EEAA9A4E46A9
:100B100004F580532DB2E0612146A3F85882A3F872
:100B20005A52C3ED94AAC3ED959A484602ADFFF719
:100B300023FB2A46B9F82010C1F30323009336F8AB
:100B4000223F01F00F080193C1F3031A09F12E03AC
:100B500036F8020F103200F00F0742F8107CC0F395
:100B6000031742F80C7CB342C0F303274FEA10305E
:100B700042F8087C42F8040CEAD12E46002056F8D0
:100B8000042B0130072AC4BF103A46F8042C182859
:100B9000F5D109F13E061AAA24E000BFAFF30080A8
:100BA00000000000000000400080FF430000804281
:100BB00000008039000080440000103F0000204009
:100BC0000000FE42000080430000003D00000039AC
:100BD00017B751B90000003C000080420000803D82
:100BE0000000004233F8020F103200F00F0742F805
:100BF000107CC0F3031742F80C7C9E42C0F303271D
:100C00004FEA103042F8087C42F8040CEAD1002286
:100C10001AA850F8043B0132072BC4BF103B40F820
:100C2000043C202AF5D14FF0000C09F1BE0004F27B
:100C30004A66009A55F8043BA0F140079340019A98
:100C40000DF1680E13449BB21946324637F802BFC5
:100C50004FEA9B23BBF5004F28BF403B53805EF813
:100C6000043B32F902BF03FA0AF30B440BFA08FB08
:100C70005B44B8421380E9D10CF1200CBCF5407FF5
:100C800000F1400006F14006D3D148462146FFF767
:100C9000B7FB48462146FFF7ABFCB9F86A30B2EE25
:100CA0000E6A03F03F0107EE901AF8EEE77AF4EED1
:100CB000C97AF1EE10FAC4BF1FED397A77EEC77A20
:100CC0001FED3A7AC3F3841167EE876A07EE901A34
:100CD000F8EEE77AF4EEC67AF1EE10FAC4BF1FED33
:100CE000407A77EEC77AB6EE007ADB0A27EE877A8B
:100CF00007EE903AF8EEE77AF4EEC67AF1EE10FAE3
:100D0000C4BF1FED496A77EEC67AB9F8142067EEC2
:100D1000A87A6FEA121204F5935604F5805302F094
:100D20008002083684F82520FF21C3ED976A83ED01
:100D3000987AC3ED997A1422304609F0BEF9002260
:100D40001546134609F17E0939F8020F591C70B98E
:100D500005F6341024F810308BB20135B3F5407F1E
:100D6000ADB21BD0052DEFD16FF0020011E0C0072E
:100D700041BF02F6381004EB4000438001328BB2D1
:100D800048BF92B2B3F5407F08D0052ADCD16FF09E
:100D900003003BB0BDEC068BBDE8F08F052DE3D022
:100DA000052AF4D0AB18042B46DC0027BBB29D42C9
:100DB00014D84FF0000804F5935909F112091FFAED
:100DC00088F39A421CD804F59354103406EB450579
:100DD00004EB4202B54232D0274629E007F101096F
:100DE000C846454501DC4F46E0E736F8181036F8AE
:100DF000170008F003FF0028CBD108F10108F0E745
:100E000008F1010A5746BA4201DCD046D7E739F863
:100E1000171039F8180008F0F1FE0028B9D1013791
:100E2000F1E737F8021F308808F0E8FE0028B0D15B
:100E3000BA42F6D10236CDE76FF00400A9E70020F0
:100E4000A7E72120A5E700BF2DE9F0410C462DEDD5
:100E5000028B1546002854D0002952D0002A50D0C9
:100E6000B0F85436B0F8808607EE903A1B04B8EE1E
:100E7000678A48BFDFED287A91F8240048BF38EE32
:100E8000678A06F013FA9FED200B41EC110B01F07D
:100E90001FFAC8F38128404657EC106B06F016FA8B
:100EA0009FED190B41EC110B01F012FA304653EC97
:100EB000102B394606F09EFB06F054FDB4F90230C3
:100EC00007EE100A07EE903AF8EEE77AB4F9003030
:100ED00057EE087A07EE103AB8EEC77AC7EE877A6F
:100EE00017EE900A06F004FA09A3D3E9002306F0EE
:100EF000A1F806F037FD28600020BDEC028BBDE8AC
:100F0000F0812120F9E700BF000000000000004050
:100F10006666666666660A4000008047000000005C
:100F20002DE9F3470C469246054600286AD0002971
:100F300068D0002A66D001AAFFF786FFB5F84036D0
:100F400007EE903A1A04B8EE677A48BFDFED307AC0
:100F5000B5F8003648BF37EE677A07EE903A1B04C3
:100F600048BFDFED2B6AF8EE677A48BF77EEE67A86
:100F7000D4ED046A47EE267AC7EE276ADFED257ABC
:100F800066EEA77A17EE900A06F0B2F906460198C7
:100F90000F4606F0ADF91CA3D3E9002306F048F88C
:100FA00080466068894606F0A3F902460B46404633
:100FB000494606F0F5F90022174B06F03BF80246C9
:100FC0000B463046394606F015FB0646A0890F460B
:100FD00006F07CF902460B463046394606F028F802
:100FE00006F0C0FC94ED027A06EE900AC6EE877A0F
:100FF000B3EE097A77EE877A0020CAED007A02B064
:10100000BDE8F0872120FAE76666666666660A40F4
:1010100000008047000080480000F03F0000000012
:101020002DE9F04F2DED0C8B0C46B0EE40AA10EEE2
:10103000906A1546824697B0002800F00C8300297C
:1010400000F00983002A00F00683B0F882360EAA69
:101050000393FFF7F9FE0FAA21465046FFF760FF02
:10106000DDED0F9A19EE900A06F042F9F5A3D3E9E7
:10107000002305F0DFFF06F075FC08EE900A30460D
:1010800006F036F9EFA3D3E9002305F0D3FF06F00D
:1010900069FC08EE100A28EE088A28EE088A68EE35
:1010A000A88AB0EE487A08EEE87AC7EE0A7A94F891
:1010B0004C0F38EE678A06F0F9F89FEDDB0B41EC38
:1010C000110B01F005F951EC100B06F04BFC04F587
:1010D00080530AEE900A93F84D0206F0E7F89FED70
:1010E000D20B41EC110B01F0F3F851EC100B06F0B0
:1010F00039FC0BEE100A94F84A0606F0D7F89FED7B
:10110000CA0B41EC110B01F0E3F8B7EE009A51EC79
:10111000100B06F027FCD4ED0B6ADFEDC77AB0EEBA
:10112000497A06EEA77AC9EE077AB4F94430CDEDD4
:10113000127A07EE903AF0EE496AB8EEE7CAD4EDBB
:101140000C7AB4F946204CEE276AD31A07EE903A8F
:1011500094ED0D6AF8EEE77AB0EE497A07EE867AFA
:1011600067EE267ABAF81436CDED157A07EE903A86
:101170001E04F8EE677A48BF9FEDB07AB4F91430D8
:1011800048BF77EEC77A07EE103AB8EEC77A0CEE92
:10119000902ABAF81026C7EE27BA07EE902A0990CF
:1011A0001004B8EE677ACDED146A48BFDFEDA36A8C
:1011B000BAF880368DED107A4FEA6313049303F08A
:1011C00080030593BAF8503648BF37EE667A07EECB
:1011D000903A48BF8DED107A190448BF9FED977A79
:1011E000F8EE677ACDED117A44BF77EEC77ACDED90
:1011F000117AF3EE097AF0EE498A79EEE79AD4EDA6
:10120000087A0E9849EEA78A8DED139A06F070F8C9
:1012100087A3D3E9002305F00BFFDDED10DACDE95C
:101220000601E06906F064F8DDE9062306F0B8F887
:101230000022834B05F0FEFE6BEEADDACDE9000136
:1012400004F580581DEE900A06F052F8B8F95832AD
:10125000064607EE903AF8EEE77A67EEA87A17EEC0
:10126000900A0F4606F044F8DDE9002306F098F8EE
:101270009DED11DA02460B463046394605F0D8FEA0
:1012800006F070FB2BEE8DDA94F8253010901DEEF1
:10129000100A089306F02CF8B8F95A32089A07EEAB
:1012A000903A059B064693420F46F8EEE77A40F0E7
:1012B000C98168EEA77A17EE900A06F019F8DDE901
:1012C000002306F06DF80B4602463946304605F01D
:1012D000AFFE06F047FB0295002504F14A0311908A
:1012E000009304F64C4B049BA8461A06C5F340191C
:1012F00054BF4B4608F00103039A48BF89EA030331
:10130000934205F1010540F08981AAF1020333F807
:10131000153007EE903A1B0448BF9FED487AF8EE6F
:10132000677A48BF77EEC77A6BEEA77A17EE900A16
:1013300005F0DEFF9BF90030B0EE497A07EE903AF7
:10134000F8EEE77A009BC7EEAA6AB3F9023606EE1A
:10135000A97A07EE903AF8EEE77A67EE277ACDE9B8
:101360000A0117EE900A05F0C3FF9BF90133064608
:1013700007EE903AF8EEE77AC7EE8B7A17EE900A0E
:101380000F4605F0B5FFDDE9062306F009F8002257
:101390002B4B05F04FFE02460B463046394605F012
:1013A000FFFF02460B46DDE90A0105F041FE06F0AB
:1013B000D9FA07EE900A059B089AB0EE677A934235
:1013C00044D04FEA490909F1FF3306EE903A04F59B
:1013D0008053F8EEE66A93ED996A46EE867A18F144
:1013E000030208F1020348BF08F106029B10B8F19E
:1013F000000FA3EBA20303EBA503B8BF08F103089A
:10140000A3EBA803C9F1010913FB09F35BB2B0EE2A
:10141000677A07EE903A04F58053F8EEE77AD3ED59
:10142000986A07EEE67A11E0000000000000004034
:101430006666666666660A400000204200008047D5
:101440000000F03F6666666666127140039B16AA4E
:1014500002EB8303D4ED066A53ED067A06EEE77AD3
:10146000099887EE0ADA05F043FF80A3D3E9002349
:1014700005F096FF009B064618880F4605F026FFEC
:1014800002460B463046394606F0B4F806F06AFAD2
:10149000F0EE498A94ED0A7A07EE900A49EE878ABF
:1014A00068EEA78AB0EE4D7A68EEA87A08EE287A40
:1014B00067EEA87A67EE877A17EE900A05F018FFB4
:1014C00041EC100B07F072FF07F070FF206B8DED01
:1014D0000A0B05F00DFF06461DEE100A0F4605F03B
:1014E00007FF5FA3D3E90023CDE90C01304639465D
:1014F00005F056FF02460B4600205B4905F098FDBB
:10150000804618EE900A894605F0F2FE02460B4628
:101510004046494605F044FF32463B4680468946F0
:10152000DDE90A0105F03CFF06F01CFA05F0E0FEDB
:1015300002460B464046494605F07CFD02460B46F6
:10154000DDE90C0106F056F8064618EE100A0F46C3
:1015500005F0CEFE02460B463046394605F06AFDE0
:1015600041EC100B07F022FF07F020FF3CA3D3E96A
:10157000002351EC100B05F05BFD06F0F3F9B4F914
:10158000423007EE900A07EE103AB8EEC77AF4EE52
:10159000C77AF1EE10FA5AD4B4EEE7CAF1EE10FAB7
:1015A00057DCB8EEEC7AF4EEC77AF1EE10FA4CBFE5
:1015B0000223032303F1200234F9122007EE102A3C
:1015C000B8EEC77A04EB8302D2ED0B6A77EEC77AE6
:1015D000B0EE497A16AA02EB830307EEA67A53ED22
:1015E000047A68EEA78A67EE287A8DEE277A77EE7E
:1015F000087A17EE900A05F07BFE41EC100B07F01D
:10160000D5FE07F0D3FE16A3D3E9002351EC100B4F
:1016100005F00EFD06F0A6F9029B1860029BB5F5D9
:10162000407F03F104030293009B0BF1010B03F1D4
:10163000020300937FF457AE002017B0BDEC0C8B73
:10164000BDE8F08F98ED977A77EE877A31E6002340
:10165000B0E70123AEE72120EFE700BFAFF3008042
:1016600066666666661271400000F03F8DEDB5A0BB
:10167000F7C6B03E000000002DE9F04FC76997B0F3
:101680008346209E08910C92129355EC104B8DEDE1
:10169000000B7FB9102007F0D1F80246CBF81C00F0
:1016A00020B9A74BEF21A74807F036FEC0E9017724
:1016B0000760C760DBF81C30196859B15A6801230C
:1016C000584693404A608B6007F0A6F9DBF81C305F
:1016D00000221A602B1EB7BF23F000430023012213
:1016E0000193A8BF3360019F974BB8BF3260BB43E3
:1016F00019D142F20F73129A1360C7F313032343F5
:1017000000F0DB85219B53B9904B21E0904B039374
:101710000833219A1360039817B0BDE8F08F8B4B04
:1017200003930333F5E79DED007B0022002351EC8A
:10173000170B8DED0A7B06F09BF8804650B1012314
:10174000129A1360219B13B1824B219A1360824B32
:101750000393E0E7C7F30A5614AA15A958469DED6E
:101760000A0B07F0E1FB0290002E76D00B9BA6F24D
:10177000FF36CDF84C80C3F3130343F07F53DDE90C
:101780000A0143F4401319460022744B05F050FC43
:1017900065A3D3E9002305F003FE65A3D3E9002385
:1017A00005F048FC04460D46304605F08FFD62A367
:1017B000D3E9002305F0F4FD02460B4620462946F6
:1017C00005F038FC04460D4606F084F80022074672
:1017D00000232046294606F055F840B1384605F06A
:1017E00075FD22462B4606F043F800B9013F162F3F
:1017F00052D85B4B03EBC703DDE90A01D3E90023B1
:1018000006F040F8002849D0013F00231193149BB3
:101810009B1B5A1E4CBFC3F101030023079245BF17
:101820000693002306930793002F39DB079B10973D
:101830003B44079300230993089B092B66D8052B8B
:10184000C5BF043B002401240893089B023B032BE3
:1018500067D8DFE803F02D3A3859DDE914631E44F8
:1018600006F23243202BC9BFC3F14003C3F120036A
:101870009F4006F21243D8BF04FA03F006F1FF3688
:10188000C4BF24FA03F347EA030005F00FFD012269
:10189000A1F1F873139276E70123B7E71190B6E749
:1018A000069BDB1B06937B42099300231093C3E73F
:1018B00000230D930C9B002B56DC012399461A46FE
:1018C00004930C920CE00123F3E700230D930C9B8F
:1018D000FB1803F1010904934B46012BB8BF012308
:1018E000DBF81C000021042202F114059D423FD9BF
:1018F0004160584607F050F8039000283BD1194B3F
:10190000024640F2AF11CEE60123DFE701240023B7
:101910000D9408934FF0FF3300229946049312234D
:10192000CFE701230D93F5E761436F63A787D23FAC
:10193000B3C8608B288AC63FFB799F501344D33FBE
:101940007AAE000891AE00080000F07F76AE000885
:101950006DAE00084AAE000849AE00080000F83F2E
:1019600090AF0008EAAE00080C9B99460493B7E7D5
:1019700001315200B8E7DBF81C30B9F10E0F039AC1
:101980001A606FD8002C6DD0002F36DD07F00F02E3
:10199000A04BF8054FEA271403EBC20393ED007B3D
:1019A0008DED0E7B17D59C4B04F00F044FF0030810
:1019B000D3E90823DDE90A0105F01CFECDE90001A9
:1019C000954D5CB9DDE90E23DDE9000105F012FE5D
:1019D000CDE900012BE04FF00208F1E7E10709D55E
:1019E00008F10108DDE90E01D5E9002305F0D8FC76
:1019F000CDE90E0164100835E3E700F007817C4271
:101A0000844B854D4FF0020804F00F02241103EBC4
:101A1000C203DDE90A01D3E9002305F0C1FC00237C
:101A2000CDE90001002C40F0E580002BD0D1119BC6
:101A3000DDE90045002B00F04C810022774B204669
:101A4000294605F01FFF002800F04381B9F1000F7F
:101A500000F03F81049B002B00F3E480DDE90A34B1
:101A6000CDE90034159B002B02DB0E2F40F34282A0
:101A70000D9A002A40F06782099C0025DDF8188045
:101A8000B8F1000F0DD0079B002B0ADD4345069AE5
:101A9000A8BF4346D21AA8EB03080692079AD31AA6
:101AA0000793099B0BB30D9B002B00F0A682002C23
:101AB00000F0A18229462246584607F0D7F8029A3C
:101AC00001460546584607F027F80299064658464B
:101AD00006F0A2FF099B1B1B099300F09182099A53
:101AE0003146584607F0C2F802900121584606F0E8
:101AF000FDFF109B0446002B00F084821A4601462D
:101B0000584607F0B3F8089B0446012B03DC009B02
:101B1000002B00F07C820026236904EB8303186904
:101B200008F086FBC0F120001096079B184410F0C7
:101B30001F0000F09182C0F12003042B40F381824A
:101B4000C0F11C00069B034480440693079B03449A
:101B50000793069B002B05DD1A460299584607F0AD
:101B6000DFF80290079B002B05DD21461A465846F8
:101B700007F0D6F80446119B002B00F07682214630
:101B8000029808F0A4FB002880F26F8200230A224A
:101B90000299584606F062FF0D9B7E1E0290002BB4
:101BA00000F05C82002329460A22584606F056FFC0
:101BB000049B0546002B03DC089B022B00F35E828E
:101BC000B8F1000F05DD29464246584607F0A8F84F
:101BD0000546109B002B00F0D0826968584606F03D
:101BE000DBFE0746002840F07F820D4B024640F2A4
:101BF000EF2158E5E20706D508F10108D5E90023F1
:101C000005F0CEFB0123641008350BE74FF0020806
:101C10000DE700BF90AF000868AF00080000F03F7C
:101C2000EAAE000820460022AC4B294605F0B8FB7E
:101C30007E1E08F10108049CCDE90001404605F034
:101C400045FBDDE9002305F0ABFBA54B002205F0C9
:101C5000F1F9A1F15073CDE90E010F93002C3BD1A6
:101C60000022A04BDDE9000105F0E2F902460B4637
:101C7000CDE90023DDE90E2305F022FE002840F027
:101C80005781DDE90E2101F10043DDE9000105F096
:101C9000F9FD00283FF4E2AE002425460C9BDDF858
:101CA0000CA0DE434FF000082146584606F0B4FE73
:101CB000002D00F0A980B8F1000F05D0A84503D091
:101CC0004146584606F0A8FE2946584606F0A4FEAE
:101CD0009AE03E464C46B1E7834B03EBC40353E91D
:101CE0000201039B1C440D9B002B4AD002460B466D
:101CF00000207E4905F07EFCDDE90E2305F098F911
:101D0000DDF80CA0CDE90E01DDE9000105F0E2FDF2
:101D1000054605F0DBFA024630350B46DDE90001E9
:101D200005F086F90AF8015B02460B46CDE9000191
:101D3000DDE90E0105F0C4FD002865D100206C49E5
:101D4000DDE9002305F074F902460B46DDE90E01DA
:101D500005F0B6FD002840F00D81A24500F0EA80B4
:101D600000225E4BDDE90E0105F01AFB00225B4B01
:101D7000CDE90E01DDE9000105F012FBCDE900011E
:101D8000C2E7DDE90E2305F00BFBA046DDF80CA051
:101D9000CDE90E01DDE9000105F09CFD054605F0E9
:101DA00095FA024630350B46DDE9000105F040F9B1
:101DB0000AF8015B02460B46A245CDE900234FF02D
:101DC000000223D1494BDDE90E0105F033F902464B
:101DD0000B46DDE9000105F073FD002840F0CA80E4
:101DE00000204249DDE90E2305F022F902460B46A8
:101DF000DDE9000105F046FD70B1C24608F1FF388B
:101E00001AF8013C302BF8D0374655E0334B05F03B
:101E1000C7FACDE90001BDE7DDE90A34CDE90034B8
:101E2000159B002BFFF628AE0E2F3FF725AE2E4B4D
:101E300003EBC70393ED007B0C9B002B8DED047B24
:101E400002DAB9F1000F64D0DDF80CA0DDE900453D
:101E5000DDE904232046294605F0CCFB05F03AFDD8
:101E6000064605F033FADDE9042305F099FA024647
:101E7000204606F130040B46294605F0D9F80AF849
:101E8000014B039C02460B46AAEB0404A14540F01B
:101E9000828005F0CFF804460D46DDE9042305F005
:101EA0000FFD002865D120462946DDE9042305F011
:101EB000DFFC08B1F3075CD40299584606F0ACFD8C
:101EC000002301378AF80030129B1F60219B002BF2
:101ED0003FF421ACC3F800A01DE400BF0000244083
:101EE00000001C400000144090AF00080000E03FDC
:101EF0000000F03FA24B03EBC70393ED007B0C9B6C
:101F0000002B8DED047B9FDAB9F1000F9CDC7FF490
:101F1000C3AE00229B4BDDE9040105F041FADDE987
:101F2000002305F0C3FC044600287FF4B5AE3E460E
:101F30002546B4E0DDE90A34CDE90034159B002BD9
:101F400001DB0E2FD6DD089A012A36DC139A82B304
:101F500003F23343099CDDF81880069A01215846A4
:101F60001A440692079A1A44079206F0BFFD0546E6
:101F700086E53E4653469A4613F8012D392A06D186
:101F8000039A9A42F7D13022039901360A701A78DF
:101F900001321A7038E700227B4B05F001FA00226B
:101FA000002304460D4605F063FC00283FF450AFC3
:101FB00082E7149BC3F13603CCE709F1FF34099B98
:101FC000A34208DBB9F1000FA3EB04040EDBDDF83C
:101FD00018804B46C1E7099B109AE31A0994DDF873
:101FE000188000241A444B461092B6E7069BA3EBD8
:101FF00009080023B1E7029E71E5099A029970E58C
:10200000029672E5089B012B17DC009BABB9019B84
:10201000C3F313039BB9019B23F00046360D36052D
:1020200036B1069B012601330693079B01330793C4
:10203000109B002B7FF470AD1096012075E50026F3
:10204000F6E73FF486AD1C33069A1A44984406928C
:10205000079A1A4407927CE50346F4E7049B002B99
:102060002BDC089B022B09DC27E0B9F1000F1DDCFB
:10207000089B022B1ADD3E46CDF81090049B002BE6
:102080007FF40CAE21460522584606F0E7FC0146D7
:102090000446029808F01BF900287FF7FFADDDF831
:1020A0000CA0312301360AF8013BFBE50D9B3E46AF
:1020B000CDF81090002B7FF483AD039F214602984A
:1020C00008F029F8039B00F13009049A07F8019BF6
:1020D000FB1A9A4240F3CB8000230A220299584609
:1020E00006F0BCFC0290E9E72A6905F10C010C300E
:1020F0000232920007F0FAFF01223946584606F0F4
:102100000FFE039BA846054603F1010ADDE9032300
:1021100013440793009B03F0010309930AF1FF3373
:1021200021460298049307F0F6FF4146069000F11D
:102130003009029808F0CBF82A462146074658464F
:1021400006F05AFEC268014602B3584606F064FC27
:10215000002F3ADA01220299584606F0E1FD2146A5
:10216000029008F0B4F8002803DC29D119F0010F1F
:1021700026D0B9F1390F1DD132E02846C1E700BFA2
:1021800090AF000800001440000024400A9002981C
:1021900008F09DF80A990C90584606F03DFC0C9A00
:1021A0005ABB089B53B9099B43B9B9F1390F17D0F2
:1021B000002F05DD069B03F1310901E0002F2ADA2B
:1021C000DDF810A00AF8019B6EE5089B3B4304D1A3
:1021D000009B03F00103002BBCD0B9F1390F36D1BD
:1021E000049F392307F8013BBA46013F1AF8013C26
:1021F000392B5AD001333B7056E5002F06DB089B84
:102200003B4306D1009B03F0010313B9002AA1DC74
:10221000D6E7002AE1DC079B57460AF8019C5345A4
:102220002ED000230A220299584606F017FCA84532
:1022300002904FF000034FF00A02414658460BD17E
:1022400006F00CFC804605460AF1010A66E7DDF857
:1022500010A009F10109B5E706F000FC2946804607
:1022600000230A22584606F0F9FB0546ECE7049BDA
:102270004FF00008002BCCBF1F460127039B1F44D3
:1022800001220299584606F04BFD2146029008F0C3
:102290001EF80028A8DC02D119F0010FA4D1BA461B
:1022A00017F8013D302BFAD0FEE4039BBB429BD1D3
:1022B0003123039A01361370F6E4219B002B7FF43F
:1022C00025AA014BFFF744BA6DAE000800000000DC
:1022D000F8B555EC114B2DED028B57EC106B00F05F
:1022E0006FF822462B4620462946B0EE408AF0EE93
:1022F000608A07F0CDF978B90022002330463946CC
:1023000005F0B6FAF0B1002200232046294605F078
:10231000AFFA40B19FED288BB0EE480AF0EE680AA4
:10232000BDEC028BF8BD45EC104B07F073F80028AC
:10233000F2D0002200232046294605F0A3FA002807
:10234000EAD02EE0B0EE480AF0EE680A07F062F834
:10235000A0B10022002351EC180B05F089FA0028E7
:10236000DAD047EC106B07F055F80028D4D045ECD4
:10237000104B07F04FF80028CED012E047EC106B5E
:1023800007F048F80028E4D045EC104B07F042F87D
:102390000028DED053EC182B51EC180B07F078F91D
:1023A00020B907F08BF922230360B5E707F086F91F
:1023B00021230360B0E700BF000000000000F03FF1
:1023C0002DE9F04F55EC114B25F0004393B053EA43
:1023D000040057EC106B12D1B31987F40022464960
:1023E0005241984291411ED222462B4630463946F0
:1023F00004F020FE41EC100B13B0BDE8F08F3F4815
:1024000027F0004ABB46B046824511D93C4A5A449F
:1024100052EA0802E8D1231985F4002136484941DF
:102420009A428841E0D39FED320B13B0BDE8F08FA4
:1024300029462246504601D1002ED5D1DFF8BCC036
:102440006345E3D801D1002AE0D1BBF1000F1FDBC7
:10245000002A5DD1DFF8A4C063450AD09146294A1D
:10246000934240F059840029C0F2188547EC106B64
:10247000C2E7234B534453EA0803D4D0224B9A4576
:1024800040F2D9840029C0F2528545EC104BB3E7E5
:10249000DFF878C0634540F28483002A40F08D83E2
:1024A000164A9342E5D04FF002090491029300903E
:1024B00047EC106B07F0B6F80098029B0499B8F14E
:1024C000000F00F04D834FEADB7808F1FF3859EA3E
:1024D000080231D132463B461046194604F0A8FDA9
:1024E00002460B4605F086F841EC100B84E700BF6E
:1024F000000000000000F03F0000F0FF0000F07F4F
:10250000000010C00000F03FFFFFEF3FFFFF3F4320
:102510004FF0000904910293009047EC106B07F014
:1025200081F80098029B0499B8F1000F00F018831D
:102530004FEADB7808F1FF38D14A934200F24D832D
:10254000D04B00220BEA030353B9CF4B51EC100BD5
:1025500004F026FF6FF0340241EC100B10EE900AED
:102560000315C0F31300C94FA3F2FF3307439A18B2
:10257000C74B98420D9240F34A84C64B984240F3B1
:10258000A1840132A7F5801700260D929FEDA67B4E
:102590008DED087B9FEDA67B8DED067B9FEDA27BED
:1025A0008DED107B5BEC10ABDDE906235046394620
:1025B00004F03EFDBB46DDE90623CDE90A015046A5
:1025C000394604F037FD02460B460020AF497F1024
:1025D00005F010F802460B4647F00057DDE90A0106
:1025E000CDE90E2304F0DCFE0A46014607F5002380
:1025F0000020CDE90212CDE9041200210246029129
:10260000991906460F460B469DED027B51EC170BC0
:102610008DED007B04F0C4FE02460B46DDE90A01A5
:1026200004F006FDDDE90623CDE90A01304639460E
:1026300004F0FEFC02460B465046594604F0F8FCF6
:10264000DDE90A67DDE9002304F0AAFE02460B4635
:102650003046394604F0ECFCDDE90E2304F0A0FE20
:10266000DDE90467CDE9060132463B46304639468E
:1026700004F096FE82468B466FA3D3E9002304F054
:102680008FFE6FA3D3E9002304F0D4FC52465B46CF
:1026900004F086FE6CA3D3E9002304F0CBFC524681
:1026A0005B4604F07DFE6AA3D3E9002304F0C2FC7C
:1026B00052465B4604F074FE67A3D3E9002304F09E
:1026C000B9FC52465B4604F06BFE65A3D3E90023D8
:1026D00004F0B0FC06460F4652465B46504659464B
:1026E00004F05EFE02460B463046394604F058FEC2
:1026F00006460F46DDE900ABDDE9040152465B46C4
:1027000004F098FCDDE9062304F04AFE32463B461D
:1027100004F090FC524606460F465B46504659462A
:102720004FF0000A04F03CFE02460B46CDE90A23B6
:102730000022594B04F07EFC32463B4604F07AFC02
:102740008B4652465B46DDE9000104F029FE00227B
:10275000514BCDE900015046594604F069FCDDE9D2
:102760000A2304F065FC02460B463046394604F065
:102770005FFCDDE9042304F013FE06460F465246D3
:102780005B46DDE9060104F00BFE02460B463046CF
:10279000394604F04FFC06460F4632463B46DDE91B
:1027A000000104F047FC8B4650462FA3D3E90023D9
:1027B00004F0F6FDDDE90023CDE90001504659465D
:1027C00004F036FC02460B463046394604F030FC35
:1027D00027A3D3E9002304F0E3FD06460F46504645
:1027E000594625A3D3E9002304F0DAFD02460B463F
:1027F0003046394604F01EFCDDE9102304F01AFCD3
:1028000082468B460D9804F061FD524606460F46FF
:102810005B46DDE90001CDE904AB04F00BFCDDE92A
:1028200008233BE0AFF30080000000000000000040
:10283000000000000000F03FEF4E454A287ECA3FEE
:1028400065DBC9934A86CD3F01411DA96074D13F24
:102850004D268F515555D53FFFAB6FDBB66DDB3F36
:10286000033333333333E33F000000E009C7EE3F67
:10287000FD033ADC09C7EE3FF5015B14E02F3EBED5
:102880000000E0410000F07F000040430000F03F06
:102890008E98030079B60B000000084004F0CAFBD4
:1028A00032463B4604F0C6FB002032463B46824699
:1028B0008B4604F0BDFBDDE9082304F0B9FBDDE93C
:1028C000002304F0B5FB02460B46DDE9040104F0E9
:1028D000AFFBCDE9040109F1FF3353EA080300F02F
:1028E00016829FEDC77B8DED027B00232046294693
:1028F000CDE900450093DDE9008942464B4604F0EE
:1029000097FB5B46524604F04BFD06460F462246B7
:102910002B46DDE9040104F043FD02460B46304638
:10292000394604F087FB424604460D464B4659465D
:102930005046A04604F034FD06460F462046294680
:1029400032463B46A94604F075FBC14B04460D4692
:1029500099428B4640F3B781BE4B0B44034340F092
:10296000C98240464946A8A3D3E9002304F062FB8C
:1029700032463B46CDE900012046294604F058FB8B
:1029800002460B46DDE9000104F09AFF002840F002
:10299000B1824FF400735B44AF4CBBF1000F4FF0BA
:1029A0000000C3F30A52C3F31301A2F2FF3241F451
:1029B000801144FA02F4C2F1140241FA02FA04EA64
:1029C0000301024630460B46B8BFCAF1000A394639
:1029D00004F02EFB02460B4606460F46404649468B
:1029E0004FEA0A5B04F026FB0D460024294688A323
:1029F000D3E90023204604F0D3FC32463B46CDE920
:102A000000012046294604F013FB02460B464046CF
:102A1000494604F00DFB80A3D3E9002304F0C0FC79
:102A200006460F46204629467DA3D3E9002304F03D
:102A3000B7FC02460B463046394604F0FBFA064620
:102A40000F4632463B46DDE900894046494604F0E0
:102A5000F1FA424604460D464B4604F0E9FA0246B6
:102A60000B463046394604F0E3FA22468046894652
:102A70002B462046294604F093FC06460F466AA3DF
:102A8000D3E9002304F08CFC69A3D3E9002304F00C
:102A9000CFFA32463B4604F083FC67A3D3E9002318
:102AA00004F0C8FA32463B4604F07AFC64A3D3E94A
:102AB000002304F0BDFA32463B4604F071FC62A3E9
:102AC000D3E9002304F0B6FA32463B4604F068FC32
:102AD00002460B462046294604F0AAFA06460F464F
:102AE0002046324629463B4604F05AFC00224FF06D
:102AF0008043CDE900013046394604F099FA024698
:102B00000B46DDE9000104F075FD424606460F461E
:102B10004B462046294604F043FC42464B4604F00F
:102B200089FA02460B463046394604F081FA2246BD
:102B30002B4604F07DFA02460B460020474904F07C
:102B400077FA0B4659440246B1F5801FC0F2CA819C
:102B50001046DDE9022304F023FC41EC100B4BE4AA
:102B60002BF04042DFF8F4C0624503D0BAF1000F09
:102B70007FF4A9AC002907DA0020384953EC102B68
:102B800004F038FD41EC100BBBF1000FBFF634AC84
:102B9000334B534453EA090340F0B68153EC102BF6
:102BA0009AE4DFF8C4C0634560D8002A72D1B1F15D
:102BB000804F00F07D81914677E447EC106B0291E5
:102BC000009306F02FFD009B0299B8F1000F00F072
:102BD0005A814FF002094FF00008224A9342224BDB
:102BE00040F2AD809A4540F22181002940F32181D5
:102BF000002013B0BDE8F04F00F08ABAAFF30080B8
:102C0000000000000000F03FFE822B654715973C56
:102C100000000000432EE63FEF39FAFE422EE63F69
:102C2000396CA80C615C20BED0A4BE726937663EC8
:102C3000F16BD2C541BDBB3E2CDE25AF6A56113FBC
:102C400093BDBE166CC1663F3E5555555555C53FA3
:102C5000FFFF8F40000070BF0000F0FF0000F03F5A
:102C6000000010C00000F043FFFFEF3F4FEA235C7D
:102C7000ACF2FF3CBCF1140F40F3F380CCF1340C08
:102C800022FA0CFE0EFA0CFC944500F05481002A46
:102C90003FF4E4AB009147EC106B06F0C3FC0099E5
:102CA000B8F1000F7FF416AC2BF0404BCA4B9B459C
:102CB00003D0BAF1000F7FF40DAC0029C0F24481BB
:102CC0004FF0000964E721F00043DFF81CC36345BF
:102CD00040F2BE80C14B0B4403430AD132463B460F
:102CE00004F0A6F942464B4604F0E0FD00283FF40C
:102CF00050AE00220023DDE9020104F0C3FD0038DC
:102D000018BF012013B0BDE8F04F00F0F9B99FEDF6
:102D10009E7B8DED027BE8E5B1F1804F00F0C8802D
:102D2000BBF1000FFFF6C1ABAD4A91427FF4BDABE2
:102D300047EC106B13B0BDE8F04F06F079BB9A4535
:102D400074D3A54B9A453FF650AF0022A24B51ECED
:102D5000100B04F06DF982468B468DA3D3E9002356
:102D600004F01EFB8CA3D3E90023CDE900015046FB
:102D7000594604F015FB00229A4BCDE9020150465A
:102D8000594604F00DFB02460B4685A1D1E900012E
:102D900004F04EF952465B4604F002FB02460B4635
:102DA00000208F4904F044F906460F4652465B4620
:102DB0005046594604F0F4FA02460B46304639466E
:102DC00004F0EEFA78A3D3E9002304F0E9FA02460E
:102DD0000B46DDE9020104F02BF906460F463246A8
:102DE0003B46DDE900AB5046594604F023F900208C
:102DF00052465B4682468B4604F01AF902460B4661
:102E00003046394604F014F9CDE9040163E59FED3D
:102E1000687B00268DED087B9FED677B8DED067B43
:102E20009DED087B8DED107BFFF7BCBB0029FFF605
:102E3000DFAE002066E700299FED5D0BBFF6DCAA40
:102E400005F1004300EE104A00EE903AFFF7D4BAC5
:102E5000634A934200F28E80DDE900239346924656
:102E6000C3E5002A7FF416AFCCF1140C43FA0CFE34
:102E70000EFA0CFC9C457FF4F1AA0EF0010ECEF187
:102E80000209FFF7ECBA2BF0404B534A934549D067
:102E9000BAF1000F46D04FF002099EE600204E49DD
:102EA00032463B4604F0A6FB41EC100BFFF7A4BAF8
:102EB00032463B463046394604F072FA41EC100B7C
:102EC000FFF79ABA9FED3E7B4FF480268DED087B8D
:102ED0009FED3D7B8DED107B9FED3D7B8DED067B6A
:102EE000FFF760BB504643EC102B00F081F851EC2B
:102EF000100B2EE600220023DDE9020104F0C2FCE3
:102F0000003818BF012074E6B9F1010F7FF474AAEC
:102F100010EE901A10EE102A01F1004343EC102B32
:102F2000FFF76ABA00291ADB4FF0020930E69FED7D
:102F3000200BFFF761BA0EF0010ECEF10209002A54
:102F40003FF48DAAFFF7E6BA53EC102B002022497C
:102F500004F050FB4FF0000941EC100B18E653EC65
:102F6000102B00201C4904F045FB4FF0020941ECF6
:102F7000100B0DE61B154FF48012A3F2FE3342FA3C
:102F800003F308E5AFF30080000000000000F0BF8D
:102F9000000000604715F73F44DF5DF80BAE543E7C
:102FA000555555555555D53FFE822B654715F73F6D
:102FB0000000000000000000000000000000F03FE2
:102FC0000000004003B8E23F06D0CF43EBFD4C3E8B
:102FD000000000000000F83F0000F03F00346F3FA9
:102FE0000000E03F0000D03FFFCB90400000000019
:102FF000F8B553EC102B0446C3F30A50194670BBC6
:1030000023F000411046114328D0394D19460022C3
:10301000384B04F0C5F9AC4202460B4650DBC1F315
:103020000A5036384CF2503C644522DC044440F2ED
:10303000FE7084421DDC002C33DC14F1350F37DBCD
:103040002D48363416462D4B0840002240EA0457DE
:103050003046394604F0A4F941EC100BF8BD40F2BB
:10306000FF7C6045DED1104603F0E4FF41EC100B1D
:10307000F8BD002B16A1D1E9000107DB14A3D3E9A9
:10308000002304F08DF941EC100BF8BD12A1D1E939
:1030900000010FA3D3E9002304F082F941EC100BE7
:1030A000F3E71548084040EA045343EC102BF8BD01
:1030B000002B0BA1D1E9000102DA0BA1D1E900013B
:1030C00007A3D3E9002304F06BF941EC100BF8BD22
:1030D0009C7500883CE4377E9C7500883CE437FE94
:1030E00059F3F8C21F6EA50159F3F8C21F6EA581EE
:1030F000B03CFFFF00005043FFFF0F800000903CFA
:103100009FED010B06F0A8BA0000000000000010BF
:103110009FED010B06F0A0BA000000000000007057
:103120000348044B834202D0034B03B11847704756
:103130001C2A00201C2A002000000000064B074922
:10314000C91A891048BF0131491003D0044B0BB193
:1031500001481847704700BF1C2A00201C2A002085
:103160000000000010B5064C237843B9FFF7D8FFE4
:10317000044B13B10448AFF300800123237010BD4A
:10318000544C002000000000B0B0000808B5054B0A
:103190001BB105490548AFF30080BDE80840FFF7C3
:1031A000CDBF00BF000000001C2A0020B0B0000806
:1031B000A3F5803A704700BF174B002B08BF134B95
:1031C0009D46FFF7F5FF00218B460F461348144A32
:1031D000121A06F072FF0E4B002B00D098470D4BD1
:1031E000002B00D098470020002104000D000D485E
:1031F000002802D00C48AFF3008005F0B1FA20009F
:10320000290006F061FA04F08DFD00BF00000800FF
:103210000000000000000000002800201C2A002000
:10322000804C002000000000000000000749084A10
:103230000B6812689342B4BF01200023054ABDBF4A
:103240001B1810700B601370704700BF54360020BD
:1032500010280020554C0020002330B585B0ADF873
:103260000E304B4B3321186803F076FE494C002892
:1032700040F0838006F063FA06F062FA464920685F
:1032800006F0BDFB032006F072FD054608B3434976
:10329000206806F0B4FB4249206806F0B0FB06F057
:1032A0004EFA06F04DFA3F4B3F4A00933F4939230F
:1032B000206806F0A4FB3E492B463E4A206806F0F3
:1032C0009EFB284600F0A4F93B49206806F097FBD6
:1032D000FEE70DF10E0006F066FD054608B32F4926
:1032E000206806F08CFB2E49206806F088FB06F06B
:1032F00026FA06F025FA2B4B2B4A00932B493C2348
:10330000206806F07CFB2A492B462A4A206806F0F2
:1033100076FB284600F07CF92749206806F06FFB11
:10332000FEE70346CDE90000FA21244A244803F0D1
:103330007FFB054648B31949206806F060FB184931
:10334000206806F05CFB06F0FAF906F0F9F9154B77
:10335000154A009315494423206806F050FB144990
:103360002B46144A206806F04AFB284600F050F924
:103370001149206806F043FBFEE706F0E0F906F08D
:10338000DFF91049206806F03AFB05B030BD00BFF8
:1033900028280020BC36002000A70008B4A7000899
:1033A00041A70008B6A7000846A700084FA70008D5
:1033B0005EA700085BA7000873A700082D3200086D
:1033C000342A002084A70008F8B5144B1A781AB3E1
:1033D000002413481C7003F0EDFD114E114D124FE7
:1033E00006F0ADF906F0ACF956F8040B03F080FFD7
:1033F000013402460B462868394606F000FBB4F556
:10340000407FEDD106F09BF906F09AF9286807494C
:10341000BDE8F84006F0F3BAF8BD00BF554C0020F7
:10342000542A0020BC360020A7A70008AEA7000839
:1034300010B5274C01F0AAFB01F0D2FD236F23F059
:10344000070343F00303236706F048FA214B0020EB
:103450009B6ADB015EBF4FF480321F4B9A62D4F847
:10346000203123F0070343F00203C4F82031D4F8DD
:10347000283123F0070343F00203C4F82831D4F8BD
:10348000403123F0030343F00203C4F84031D4F881
:10349000603123F0030343F00203C4F86031D4F831
:1034A000403223F0030343F00203C4F84032D4F85F
:1034B000003223F0070343F00203C4F80032D4F8CB
:1034C000083223F0070343F00203C4F8083210BDAA
:1034D000008000500040005A0060005A08B53A20B1
:1034E000012101F003F9BDE80840014800F014BBD8
:1034F0001428002030B5224D95B00DAC0FCD0FC46F
:1035000095E80700292384E807001E4A0021CDE939
:1035100002230523CDE904118DF8113006230E2274
:103520000DF1260006918DF8133006F0C6FD4FF41C
:103530008021154B1548CDE9071309238DF8243058
:103540000A238DF82530124B0DAA0A9320230B93E2
:1035500001238DF831300F4B07A9009302AB03F024
:103560006BF8044618B188210B4806F063F9002176
:103570004FF4E13006F03BF9204615B030BD00BFF6
:10358000F0A7000800C0055024C00550A436002054
:10359000564C002058360020BFA7000808B5FFF79A
:1035A000A9FF28B1BDE80840B821024806F042B999
:1035B00008BD00BFBFA70008014806F09ABA00BFC7
:1035C000A4360020012208B5074B1A700022074BD1
:1035D0001A700422064B1A701F22064B1A7002F052
:1035E00089FD054B186008BD0E2A0020764C00208E
:1035F0000D2A00200C2A0020BC360020024B034973
:10360000186806F0FCB900BFBC3600200CA8000802
:1036100070B50C4C0C490646206806F0F0F902F033
:1036200069FD0546206802F059FD3046FFF7E6FFC8
:10363000284602F053FD20680449BDE8704006F0BA
:10364000DEB900BFBC3600200EA8000810A8000894
:103650000122024BC3F8A020704700BF00D00350E6
:103660000122024BC3F8A020704700BF00E00350C6
:1036700070B5404D88B001AC0FCD0FC495E8070080
:1036800084E80700012401213A2001F02FF83A4E86
:103690000121292001F02AF8384B304601A9039373
:1036A0008DF8124002F058FB234604220321022029
:1036B00001F036FE022122460846002301F030FECA
:1036C000234621460422022001F02AFE0422002182
:1036D0002346022001F024FE294D2A4B4FF4487066
:1036E000C5F834374FF00213C5F8303703F580338F
:1036F000C5F838371C23C5F8203703F00DFB14201C
:10370000FFF7AEFF03F008FB2320FFF7A1FF03F054
:1037100003FBB9213046FFF7A3FF06F016F9FFF7C8
:1037200097FF002303211A46022001F0F9FD002330
:1037300002211A46084601F0F3FD234621460022E5
:10374000022001F0EDFD002223461146022001F087
:10375000E7FD304602F06AFA00212920C5F8341747
:10376000C5F83017C5F83817C5F8201700F0BEFFA8
:1037700008B070BD14A8000800C0055000127A00FF
:1037800000C00350020001000348044A0449121A11
:10379000921006F03CB800BFE0B20008E0B20008AA
:1037A000804C002008B500F02FF8FFF7EDFF124B1A
:1037B00012498B4212D30020114B12498B4218D36D
:1037C000FFF7FAFC186850F82240586840F8224089
:1037D000013298688242F5D30C33EAE70022F8E719
:1037E0001C6844F8220001325C68A242F8D3083316
:1037F000E4E70022F8E700BFB8B00008C4B0000852
:10380000C4B00008C4B000084FF480414FF0FF304E
:10381000114B124A10B59A60D3F8882042F4700216
:10382000C3F888200E4A91660E4901F500521066D1
:103830000D4850660220C3F8D000BFF34F8FBFF38E
:103840006F8F01244FF440330848C0F88041D360A3
:1038500004600B6110BD00BF00ED00E00000000837
:103860000090005000800044F7FF370000E100E0C6
:10387000014B1868704700BF30280020084B1B6FB1
:1038800003F00703022B04D0032B05D0012B05D036
:10389000FEE7044B18687047034BFBE7034870478B
:1038A000008000503028002038280020002D3101F1
:1038B00008B5FFF7E3FF054B1B6FC3F30333013379
:1038C000B0FBF3F0024B186008BD00BF0080005051
:1038D0002C2800200048704700B4C404014B18682D
:1038E000704700BF38280020054B1860054B1B6F40
:1038F00003F00703032B01D1FFF7DABF704700BFC6
:10390000382800200080005000487047002D310109
:103910004FF0B4439868C0F304400C280AD8DFE89D
:1039200000F00B0909090909072119091B1D1F00CE
:103930000F487047002070479B6803F04073B3F155
:10394000807F11D0B3F1007F10D00A4A002B08BF4E
:103950001046704708487047084870470848704745
:10396000084870470848704708487047084870473B
:10397000405DC60000093D00C0EA210180BA8C010B
:103980000048E801005A62020024F40080841E000E
:1039900040420F00014B1868704700BF34280020D8
:1039A0000346054A0549106803448B428CBF4FF01B
:1039B000FF301360704700BF3C2800200000042047
:1039C00008B501213A2000F091FE012304220321D1
:1039D000002001F0A5FC002005F0B6FF0122354BC8
:1039E0003549C3F844244FF40022A3F550335A66F6
:1039F000324BD3F8FC20D20146D4D1F8803023F0EA
:103A0000030343F00203C1F880304FF4607000F00C
:103A100095FE2A4B00F5D520D3F8F02000F2FC40AB
:103A200042F00102C3F8F020D3F8FC2042F080728B
:103A3000C3F8FC20224AA3F55D431A60214B022201
:103A4000B0FBF3F0204B01381861C3F8F0204FF4BD
:103A50008072C3F804234FF060431C4A0020C3F86F
:103A6000B02F1B4AC3F8802ED3F8002E42F4807288
:103A7000C3F8002EFF2283F82020D3F8002E22F472
:103A80008072C3F8002E08BDD3F8FC2022F08072AB
:103A9000C3F8FC20D1F8802022F0030242F0020299
:103AA000C1F88020D3F8FC2042F08072C3F8FC20DB
:103AB000ABE700BF00D003500080005000ED00E0F5
:103AC000FF030040F8590D00000004E055CEACC5DE
:103AD000090001004FF06043D3F8802E30B5D207C3
:103AE00015D501240B4D8440D5F8FC2042F080729E
:103AF000C5F8FC20D3F8002E2243C3F8002E53F85B
:103B00002020002AF0D003F82010002030BD112022
:103B1000FCE700BF00ED00E02DE9FF47044618B9BF
:103B200039214D4805F086FE2368B3F1B64F09D020
:103B30004A4A93427BD04F21474804B0BDE8F04742
:103B400005F078BE2E20012100F0D0FD01230A22CD
:103B50006179207901F0E4FB01230A22E179A0795F
:103B600001F0DEFB0A27DFF80081DFF800913C4D11
:103B7000267994F805A0032E05D839F8163023FAD3
:103B80000AF3DA0704D440F2FE31404605F052FE53
:103B90003022012302FB065603FA0AF306F501560A
:103BA0003360642003F0B8F8267994F805A0032E5A
:103BB00006D82C4B33F8163023FA0AF3DB0704D46B
:103BC00040F22D41404605F035FE3022012302FB34
:103BD000065603FA0AF306F582566420336003F0B2
:103BE0009BF8013FC4D12068B0F1B64F21D1032327
:103BF000C5F8E8346279237943EA0243C5F8EC3426
:103C0000E279A37943EA0243C5F8F03440F20113A4
:103C1000ADF80030E36869460293A3680193237C02
:103C20008DF80C3001F066FC04B0BDE8F0872F2061
:103C300089E70A4B9842E9D10323C5F8F834627941
:103C4000237943EA0243C5F8FC34E279A37943EAD5
:103C50000243C5F80035D9E730A8000800800650B7
:103C600000C00350D6A8000888A80008D6A80008FD
:103C700038B5054601F082FD044C012801D1013C14
:103C800000D138BD284601F067FCF6E7E193040057
:103C90002DE9F04F9A46564B85B01B7806460F46E5
:103CA0001546DDF83C909DF844B0DDF85080002BBF
:103CB00000F09780072A00F296800E9B002B00F000
:103CC0009280B9F1000F00F08E80129BB3F5006F67
:103CD00000F38980012803D1109B002B00F0838022
:103CE000444B03EB05131B7B002B7ED0424C102270
:103CF0000021684606F0E1F904EB45141022A7BB49
:103D00003946204606F0D9F943F210036380BBF12F
:103D1000000F03D1E37843F00303E370364A0E9BB0
:103D200002EB451CCCE90193129B6901581E9DF8DA
:103D30004C30C0F30A0003F003039B0643EA001E65
:103D400053582E48012E00EA03004EEA0003CDF836
:103D500000A0535017D0B8F1000F2ED19CF80230BC
:103D600068F304138CF8023027E00021204606F0A7
:103D7000A4F94FF444736380BBF1000FCED1E37814
:103D800043F03003C9E713230CF1100ECCF80C30CC
:103D90009CE80F008EE80F006FF00301DCF81C2098
:103DA000109B61F39F02012FCCF81C20CCF814303B
:103DB00003D1CCF81890CCF8043000270D4A290123
:103DC00002EB051342F80180159A28465A606946AD
:103DD00022469F605E7301F0B7FD384605B0BDE82E
:103DE000F08F0748FAE70748F8E70748F6E700BF0B
:103DF000774C0020C0370020C03600200F80FFF332
:103E0000028000F0018000F0078000F038B5124B0E
:103E100005461B78DBB1E0B105F07CFD0F4A0023BD
:103E20001146147B54B92B6001251A0101EB0313D1
:103E30001D738C5005F074FD204638BD0133082BEE
:103E400002F11002EDD105F06BFD0548F5E70548DC
:103E5000F3E70548F1E700BF774C0020C0370020AA
:103E6000048000F0028000F0018000F038B505F019
:103E700051FD002305460B4A147B6CB90133082B16
:103E800002F11002F8D101F0D7FC074B28461C7054
:103E900005F046FD204603E0284605F041FD0348B5
:103EA00038BD00BFC0370020774C0020058000F0EF
:103EB0000D4B10B51B78044693B1072812D805F0B6
:103EC00029FD0A4B03EB04131A7B2AB100241C734F
:103ED00005F026FD204610BD05F022FD0448FAE756
:103EE0000448F8E70448F6E7774C0020C037002084
:103EF000068000F0028000F0018000F0154B13B541
:103F00001868002301908DF8043005F003FD124B72
:103F10001C7824B105F004FD104802B010BD012248
:103F20001A7005F0FDFC0E4B01A81C731C7783F87A
:103F30002C4083F83C4083F84C4083F85C4083F885
:103F40006C4083F87C4008238DF8073001F0B2FC08
:103F50002046E2E7DEA80008774C0020038000F04E
:103F6000C03700200A4A08B512785AB107280BD882
:103F7000084A02EB00131B7B43B1002101F07AFCDD
:103F8000002008BD0448FCE70448FAE70448F8E7C5
:103F9000774C0020C0370020028000F0018000F044
:103FA000078000F00A4A08B512785AB107280BD8E2
:103FB000084A02EB00131B7B43B1012101F05AFCBC
:103FC000002008BD0448FCE70448FAE70448F8E785
:103FD000774C0020C0370020028000F0018000F004
:103FE000078000F00A4A08B5127852B107280AD8AB
:103FF000084A02EB00131B7B3BB101F027FD0020B8
:1040000008BD0548FCE70548FAE70548F8E700BFA2
:10401000774C0020C0370020028000F0018000F0C3
:10402000078000F00D4B1B7893B1072812D889B197
:104030000B4B03EB00131B7B73B10A4B1A6D01236F
:104040008340134214BF0123002300200B707047EC
:10405000054870470548704705487047774C002071
:10406000C037002000000450028000F0018000F002
:10407000078000F00B4A10B512780C4662B1072891
:104080000CD859B1084A02EB00131B7B43B101F075
:10409000F9FC2070002010BD0448FCE70448FAE752
:1040A0000448F8E7774C0020C0370020028000F079
:1040B000018000F0078000F0184B2DE9F0411F6DE2
:1040C0005B6D1F4000D5FEE701260025144CDFF88C
:1040D0005880374218D02368C8F85060A3B1A1684F
:1040E000284601316268A1609847637B012B0BD1A0
:1040F00050B90C4B03EB45131A7B60F341021A7362
:104100001A7F60F341021A770135082D4FEA4606FF
:1041100004F11004DDD1BDE8F08100BF00000450BF
:10412000C0370020C036002000200450044BD3F8D4
:104130008420D206FBD4D3F88400C0F381107047EA
:104140000040005038B5124B0546D3F880300C467D
:1041500003F00303022B0BD0032B0DD0012B0FD147
:10416000FFF78CFB0E2305B1286004B1236038BD36
:10417000FFF7CEFB0723F6E7FFF77AFB0623F2E70C
:10418000044841F2DF1105F055FB00231846EAE729
:1041900000800050E2A8000838B51A4B0546D3F855
:1041A00020010C4600F00700062821D8DFE800F0C7
:1041B00028040C1410181C00FFF75AFB052305B146
:1041C000286004B1236038BDFFF788FB0323F6E7BE
:1041D000FFF79EFB0723F2E7FFF796FB0223EEE7CC
:1041E000FFF746FB0623EAE7FFF778FB0423E6E741
:1041F000054841F25C2105F01DFB00231846DEE76F
:104200000123DCE700800050E2A8000838B5194B14
:104210000546D3F828310C4603F00703013B052B74
:1042200020D8DFE803F003131B0F0B17FFF720FB69
:10423000052305B1286004B1236038BDFFF718FBE2
:104240000623F6E7FFF764FB0723F2E7FFF746FBD9
:104250000323EEE7FFF742FB0423EAE7FFF754FBF3
:104260000223E6E7044841F2640105F0E3FA002383
:104270001846DEE700800050E2A80008F7B50027E6
:10428000144B0197D3F88041064604F00304022C36
:104290000D4614D0032C0DD0012C14D1394601A8A1
:1042A000FFF77AFF10240EB1019B336005B12C603B
:1042B00003B0F0BDFFF72CFB07240190F3E7FFF7F5
:1042C00023FB0190EFE741F2B131034805F0B2FA68
:1042D0003C46E8E700800050E2A80008002337B51C
:1042E0000193194B0546D3F820320C4603F007031F
:1042F000042B1FD8DFE803F025030F141900002159
:1043000001A8FFF783FF12230DB1019A2A6004B1BF
:10431000236003B030BDFFF7FBFA07230190F3E7FA
:1043200005F082FA0A230190EEE7FFF733FB092339
:104330000190E9E741F22301044805F07BFA0023EC
:10434000E2E70123E0E700BF00800050E2A8000898
:1043500038B5104B0546D3F840310C4603F0030343
:10436000022B0BD0032B0DD0012B0FD105F05CFAE3
:104370000A2305B1286004B1236038BDFFF70AFBAA
:104380000923F6E705F053FA0C23F2E70123002096
:10439000EFE700BF00800050002337B50193184BB2
:1043A0000546D3F860320C4603F00703013B032BAC
:1043B0001FD8DFE803F0020E1914002101A8FFF74F
:1043C000EBFE10230DB1019A2A6004B1236003B003
:1043D00030BD002101A8FFF7BBFF1123F2E7FFF773
:1043E00097FA07230190EDE7FFF78EFA0223019079
:1043F000E8E741F2C801034805F01CFA0023E1E7B1
:1044000000800050E2A80008002337B50193184B44
:104410000546D3F894320C4603F00703013B032B07
:104420001FD8DFE803F0020E1914002101A8FFF7DE
:10443000B3FE10230DB1019A2A6004B1236003B0CA
:1044400030BD002101A8FFF783FF1123F2E7FFF73A
:104450005FFA07230190EDE7FFF756FA0223019078
:10446000E8E741F2FB01034805F0E4F90023E1E746
:1044700000800050E2A8000873B500240F4B01949F
:10448000D3F87032064603F00303012B0D4607D024
:10449000022B11D041F22611094805F0CBF904E0B6
:1044A000214601A8FFF754FF11240EB1019B336090
:1044B00005B12C6002B070BD1524F6E700800050F5
:1044C000E2A8000838B5164B0546D3F800020C46A2
:1044D00000F00700042819D8DFE800F020030B0FD4
:1044E000130005F0A1F90A2305B1286004B1236087
:1044F00038BDFFF74FFA0923F6E705F098F90C23CA
:10450000F2E7FFF7D5F90F23800AEDE7054841F2FE
:104510006F4105F08FF900231846E5E70123E3E733
:1045200000800050E2A8000838B5164B0546D3F8C5
:1045300008020C4600F00700042819D8DFE800F054
:1045400020030B0F130005F06FF90A2305B1286053
:1045500004B1236038BDFFF71DFA0923F6E705F023
:1045600066F90C23F2E7FFF7A3F90F23800AEDE7C2
:10457000054841F2A74105F05DF900231846E5E73B
:104580000123E3E700800050E2A8000838B5104B93
:104590000546D3F840320C4603F00303022B0BD040
:1045A000032B0DD0012B0FD105F03EF90A2305B1E5
:1045B000286004B1236038BDFFF7ECF90923F6E762
:1045C00005F035F90C23F2E701230020EFE700BFE7
:1045D0000080005038B5104B0546D3F860310C46CA
:1045E00003F00303022B0BD0032B0DD0012B0FD1B3
:1045F00005F01AF90A2305B1286004B1236038BD1B
:10460000FFF7C8F90923F6E705F011F90C23F2E7E3
:1046100001230020EFE700BF00800050B0F5207FAD
:1046200010B52ED009D8B0F5007F24D003D868B1DA
:10463000B0F5C07F0AD000241BE0B0F5607FFAD14E
:10464000124BD3F88040C4F3011412E00F4B1C6FDF
:10465000230B13F00E0FC4F303340AD0072C08D039
:104660000F2C06D0032C04D040F28521084805F019
:10467000E1F8601C10BD054BD3F89040C4F304640E
:10468000F7E7024B1C6FC4F38024F2E70080005070
:10469000E2A800084FF4803238B5104B04469A6601
:1046A00000200D46FFF7BAFF41F671320C4B604314
:1046B000DC69DA635A6804F4803422F440125DB98C
:1046C0000849884294BF00200120000502435A6037
:1046D0000CB10022DA6338BD0349F2E700900050C4
:1046E00000000350005A6202002D310138B5430921
:1046F00004460D460ED140F22F310D4805F09AF8D0
:10470000002304F01F0485B103F580530122A24069
:104710001A6038BD012B04D0022B04D040F23D3189
:10472000EBE7044BEDE7044BEBE703F50053EDE754
:10473000E2A800086480005068800050002130B575
:10474000802885B00446CDE9001100F09F8035D85F
:104750005E2846D85E2844D8DFE800F09E434343F5
:104760004343434343434343434343434343434319
:104770004343434343434343434343439EAB9EAB83
:10478000BBBBBBBBBBABC550DB7450ABABAB43439C
:10479000434343434343ABABAB7CE5AB434343436E
:1047A000434343434343434343BB9E9E9EE0505099
:1047B000EA8B61C04343434343939E00B0F5B06F1F
:1047C00000F0918030D8B0F5207F72D00FD8B0F5CE
:1047D000C07F61D0B0F5007F61D0B0F5807F00F080
:1047E000878040F29441554805F024F851E0B0F537
:1047F000607F69D00DD8B0F5407FF2D1FFF758F84F
:1048000004464FF42070FFF709FFB4FBF0F464088E
:1048100058E0B0F5806F5CD0B0F5A06FE1D1002119
:104820006846FFF75BFD34E0B0F5106F76D016D820
:10483000B0F5E06F77D00AD8B0F5C06F69D0B0F5A9
:10484000D06FCED100216846FFF73CFE21E0B0F5E5
:10485000F06FC6D100216846FFF7BCFE19E0B0F545
:10486000406F3BD00AD8B0F5206F61D0B0F5286F0B
:10487000B7D100216846FFF7FFFD0AE0B0F5486FA9
:10488000AFD100216846FFF7BFFD02E0FEF7F6FF5B
:104890000090009805B030BDFFF70AF8F8E7FEF782
:1048A000EDFF05462046FFF7B9FEB5FBF0F5009594
:1048B000EFE7FEF7FDFF04464FF42070FFF7AEFE72
:1048C000B4FBF0F40094E4E701A8FFF73BFC019D82
:1048D000E8E700216846FFF75FFCDAE70021684659
:1048E000FFF794FCD5E700216846FFF7C7FCD0E747
:1048F0004FF0E02302911B695B0705D5FEF7D8FF57
:104900000290029B0093C4E703A902A8FFF720FDD1
:10491000F7E700216846FFF71BFDBAE7002168466C
:10492000FFF702FEB5E700216846FFF72FFEB0E76C
:1049300000216846FFF730FDABE700BFE2A80008A2
:1049400008B58020FFF7FAFE034B98429EBF4FF454
:104950008032024B1A6708BD005A620200A0005064
:104960001FB503460020B3F5807F019000F0C280A0
:1049700063D85D2B54D84C2B06D82D2B46D8232B2F
:104980002AD840F27951A4E04D3B102BF9D801A26E
:1049900052F823F0EB4A00088349000883490008D5
:1049A000834900089D4A000883490008834900089C
:1049B0006F4B0008BB4A0008614A0008654B0008BD
:1049C0008349000883490008834900088349000897
:1049D00083490008794B0008243B092BD1D801A258
:1049E00052F823F0EB4A0008EB4A0008EB4A0008B3
:1049F000EB4A0008EB4A000883490008DB4A00083C
:104A0000834900087D4A0008214B00083D2B00F037
:104A100082803E2BB5D1002001A9FFF7B7FD60E0F1
:104A2000802BAED1574B1B6F03F00703013B032BC9
:104A30004DD8DFE803F04A47878FB3F5F06F6AD0AF
:104A400021D8B3F5B06F48D00FD8B3F5607F00F030
:104A5000858096D3B3F5806F47D0B3F5A06F90D122
:104A6000002001A9FFF73AFC3BE0B3F5D06F57D027
:104A7000B3F5E06FCFD0B3F5C06F82D1002001A9AC
:104A8000FFF766FC2DE0B3F5206F70D00BD8B3F5BF
:104A9000086F4AD0B3F5106F7FF473AF002001A9FF
:104AA000FFF742FD1DE0B3F5406F5BD0B3F5486FF3
:104AB00062D0B3F5286F7FF464AF002001A9FFF73F
:104AC000DBFC0EE0052301930BE00223FBE740F241
:104AD000C6412D4804F0AEFE03E0002001A9FFF717
:104AE000CDFB019805B05DF804FB002001A9FFF79C
:104AF00053FBF6E74FF0E02302901B695B0705D5F7
:104B0000FEF7D6FE0D230393039BDCE703A902A85F
:104B1000FFF71EFCF8E7002001A9FFF75BFDE0E7C7
:104B2000002001A9FFF7CEFCDBE7164BD3F80031DC
:104B300003F00303022B07D0032B09D0012B0BD169
:104B4000FEF7CCFE0323BEE7FEF724FF0923BAE7F6
:104B500004F068FE0823B6E70123B4E701A9FFF7D4
:104B6000F1FABEE7002001A9FFF750FBB9E70020EA
:104B700001A9FFF711FCB4E7002001A9FFF744FCED
:104B8000AFE700BF00800050E2A800084FF4801299
:104B9000034B5A664FF48032024B9A62704700BF53
:104BA000009000500050005A38B5036804460F2B9F
:104BB00004D940F66D317C4804F03CFE63680F2B4D
:104BC00004D94FF43761784804F034FEA3680F2B02
:104BD00004D940F67331744804F02CFE237B0F2B6C
:104BE00004D940F67631704804F024FE637B0F2B25
:104BF00004D940F679316C4804F01CFEA37B3F2BAE
:104C000004D940F67C31684804F014FEE37B3F2B66
:104C100004D940F67F31644804F00CFE2369032B6D
:104C200004D940F68231604804F004FE6369032B26
:104C300004D940F685315C4804F0FCFDE369032BA0
:104C400004D940F68831584804F0F4FD8020FFF77D
:104C500087FE032800F083804FF48012534B4FF0FF
:104C6000A0615A6645F60E02514BC3F88020514AA6
:104C700091624FF4803102F5805291629A6DD203B5
:104C8000FCD4996D11F08041FBD1D4E900021205EA
:104C900042EA0062E07B0243207B42EA0042607B02
:104CA00042EA0032A07B42EA80121A619869D4E994
:104CB0000452120642EA856200F000400243A07EE0
:104CC000E57E0243207E42EA0042607E42EA002204
:104CD0009A611A6AE06922F00F0242EA8502364DB3
:104CE00000283DD11A6294F82420996A94F8200093
:104CF000D200294042EA40120A4394F8211042EAC5
:104D0000011242F480329A622C49294A936D31EAA9
:104D10000303FBD14FF08071264881621369A568B7
:104D200023F4700343EA055313614FF0004383619A
:104D300094F822300BB9224B996294F823303BB996
:104D40004FF480321E4B9A62194A936D5B00FCD47B
:104D500094F825301BB1164B1A4AC3F8802038BD91
:104D6000024342F0080202281A6208D119614FF486
:104D70000852996114484FF47F4104F08DFD0C49AD
:104D800094F822308A6A94F820001B062A4043EAED
:104D90004013134394F8242043EAC20394F82320D9
:104DA00043EA02438B62D3E7E2A800080090005078
:104DB0000040005A0050005AC7FFFEFE03000100E9
:104DC0000060005AF1A7FFFF3440005A014B93F9ED
:104DD000000070470F2A0020436810B5072B0446D7
:104DE00004D940F6B3512A4804F024FDA368032BEC
:104DF00004D940F6B551264804F01CFD2378032B56
:104E000004D940F6B751224804F014FD94F901305A
:104E1000002B04DA40F6B9511D4804F00BFD4FF4A5
:104E200000011C4A637851664FF4D151022002F50B
:104E3000B832516218494F2B48604FF0010028BF2B
:104E40004F2301F5805148601169C903FCD42178D2
:104E500043EA01235361D4E901131B0143EA01230F
:104E6000617B0B43217B43EA41039360E37BA17B9E
:104E70001B0143EA4113617C0B43217C43EA41035C
:104E80005360A37C13B16FF4D153536210BD00BFC4
:104E9000E2A800080090005000100250014B18805A
:104EA000704700BF0A2A0020014B1880704700BFDE
:104EB000082A0020B0F5207F38B577D00ED8B0F59D
:104EC000007F61D003D890B3B0F5C07F2FD040F2FF
:104ED0001231BDE838403D4804F0ACBCB0F5607F0D
:104EE000F5D13B4A4C1ED2F8FC5015F080751EBF20
:104EF000D2F8FC3023F08073C2F8FC30032C04D9C4
:104F000040F2F221314804F095FC324AD2F8803068
:104F100023F0300343EA0413C2F8803035B12C4A41
:104F2000D2F8FC3043F08073C2F8FC3038BD4C1E20
:104F3000012C0AD9102903D8274BCB40DB0704D416
:104F400040F2C721214804F075FC04F0B4FC04F0E1
:104F5000C0FC4FF48031214B1E4A1967136F23F4B4
:104F6000704343EA04331367FEF7A2FC0446FFF7DD
:104F7000DDF8C0F10201204604F0A5FC00F040F885
:104F8000BDE83840FFF7DCBC4C1E1F2C04D940F2B2
:104F900006310E4804F04EFC0E4AD2F8903023F051
:104FA000F85343EA0463C2F89030BFE74C1E012C6B
:104FB00004D94FF44371054804F03CFC054A136FD3
:104FC00023F4806343EA84231367AFE7E2A8000871
:104FD00000ED00E000800050100101000090005042
:104FE00008B50121022000F02FF804F064FC04F061
:104FF00070FC4FF48032014B1A6708BD00900050DE
:1050000008B54FF4C070FFF799FBBDE808400449AC
:10501000884294BF012102214FF42070FFF74ABF5C
:1050200080F0FA02024A536B0342FCD1704700BF82
:1050300000400950034A0179D36E23F030030B433B
:10504000D366704700400050F8B50446244BD3F8AF
:105050008420D006FBD4D3F88430C3F381139C4260
:105060003CD0FEF70BFC012C05460BD11D4B9842A2
:1050700004D940F292711C4804F0DCFB012128465F
:1050800004F021FC04F03FFC4FF00072174B074680
:105090005A66204604F047FC4FF48063104E621EAF
:1050A00093403367736E9A0103D4D6F884309B061D
:1050B0000AD5384604F02BFC022C0FD12846BDE857
:1050C000F840002104F0FFBBD6F884309906E9D5FA
:1050D0004FF4F461044804F0ADFBE3E7F8BD00BF12
:1050E00000400050005A62022FA9000800600050E2
:1050F00010B50C4608B9FEF7C1FB074B21461B78DB
:105100003BB1064B984204D80120BDE81040FFF7A0
:105110009BBF0220F9E700BF784C0020005A6202D2
:105120004FF0004238B5244B244C5A664AF6CD3332
:10513000656C014605F00105236428BB0120FFF7DB
:1051400071FF6368DB0715D51D4B586008461D4B82
:10515000226BD2070CD4984208D1072415B1174B03
:10516000194A1A6404F0E0FB204638BD0130EFE72D
:105170009842F2D00024F1E70132236B13F00803C8
:1051800005D08A42F8D1E8E700220E49F5E78A42C5
:10519000E3D020210A4A91620121A2F58052516098
:1051A0000649084A886A800603D49342D5D0013361
:1051B000F8E79342DDE700BF00900050004009503F
:1051C0000060095040420F003254FFFF4FF0004290
:1051D00038B5164B01465A664AF6CD33144C154A7B
:1051E000656C236443780B205B0043F00103D363B9
:1051F000FFF718FF63688A7823F4F87343EA021311
:105200006360CA784B7943EA0223A3600A798B79F9
:1052100043EA022323610878FFF782FFEB0744BFCC
:10522000054B236404F080FB012038BD0090005042
:1052300000400950004000503254FFFF0F2870B565
:10524000044605D940F62D61124804F0F3FA0F2404
:105250004FF00042104B11495D6E03F580535A66C2
:105260004AF6CD334E6C80200B64FFF7DBFE0B6AF1
:1052700023F00F0323430B62F30744BF084B0B6477
:10528000002DA2BF4FF00042064B5A6604F04CFBC3
:1052900070BD00BF2FA900080080005000400950D9
:1052A0003254FFFF00A00050032838B504460D46D5
:1052B00005D8094B33F81030CB40DB0704D440F25B
:1052C0002D41064804F0B6FA302301225C43044B1A
:1052D000AA401A5138BD00BFCAA9000888A8000812
:1052E00040D00350032838B504460D4605D8094B75
:1052F00033F81030CB40DB0704D440F2FE310648CF
:1053000004F098FA302301225C43044BAA401A515E
:1053100038BD00BFCAA9000888A8000840E00350B3
:1053200003282DE9F04104460D461746984605D856
:105330001D4B33F81030CB40DB0704D44FF4B07171
:105340001A4804F077FA37B129462046B8F1000F21
:1053500020D0FFF7A9FF0F21072D04EB440688BFDB
:10536000A5F108034FEA0616114895BFAB009B0054
:1053700004360C3607FA03F29940304404F0D5FAAB
:105380007FB929462046B8F1000F06D0BDE8F041AC
:10539000FFF78ABFFFF7A6FFDDE7BDE8F041FFF7A3
:1053A000A1BFBDE8F08100BFCAA900087CA9000820
:1053B00030C00350F8B506460F461546002A6AD09D
:1053C00003F00304836823F44073836004F09BFAC2
:1053D000B26882EA042303F440735340B36004F0DC
:1053E00096FA37B9B6F1B64F0DD12E20FFF7A6F9D0
:1053F0000746B3689A0717D5012C1BD0022C27D07B
:1054000064B9264B17E0264B9E4201D12F20EDE7D1
:1054100040F22F11234804F00DFAB3684FF4B27133
:10542000204804F007FA08E0012C13D0022CE7D141
:105430001D4B00E01D4B9F42F0D91D4B1B5D6B4384
:105440000AD140F27511BDE8F840164804F0F2B9EF
:10545000184BF0E7184BEEE7A3EBC504013C3C44C6
:10546000B4FBF3F4013C0CD540F27B110D4804F081
:10547000E1F94FF4BE710B4804F0DCF9B368B46194
:10548000F8BDB4F5007FF4D2B3689B07F7D5002CC4
:1054900008BF0124F3E740F21511D4E780841E0011
:1054A00000800650D2A90008002D3101404B4C006D
:1054B0001FAA0008809FD50040548900B0F1B64F64
:1054C00038B504460D4607D0084B984204D040F248
:1054D0009511074804F0AEF9043425B104F5805461
:1054E0000123236038BD04F50054F9E7008006501D
:1054F000D2A90008B0F1B64F38B504460D4607D022
:10550000124B984204D04FF4D571114804F092F92F
:105510000023104A236404F50053DA636A7804F127
:1055200008037AB903F5805302221A602046D5E9B0
:1055300001122B7BFFF73EFF20462978BDE838405B
:10554000FFF7BCBF03F50053EEE700BF0080065035
:10555000D2A90008FFFF1F00B0F1B64F70B50AD006
:10556000824B98421DD0824840F2012104F062F93A
:105570006FF0030070BD7F4B9968C26B12F4C06F6F
:1055800015D091050FD5FD225A7009221A700022FC
:10559000026493F90110012900D15A7093F90100B6
:1055A000E8E7754BE8E75605EFD5FE22ECE71C78F7
:1055B000082C00F2D680DFE814F009001F00450037
:1055C000530070007E009C00A700CB004C880A8826
:1055D000E5060AD5120A02F0060242F0F0020121A5
:1055E00019704263C1600120C4E702F0FE02A10706
:1055F00048BF42F00102F2E7160608D5802100F507
:105600000052D1634FF608721A80022318E0550643
:10561000E9D5402400F50052D4634A88D40604D565
:1056200002221A700B784363DDE796076AD50722DA
:105630001A701B7901EBC3031B89012BD3D10823FB
:10564000C360D0E71506D9D45406CCD5402400F564
:105650000052D4634A88920754D503221A708CE70B
:105660004C880A88E60643BF120A02F0060242F09E
:10567000F00202F0FE02650709D51C7942F0010232
:1056800001EBC4010989012904BF0821C16004217B
:1056900019700123C3604263A5E71406AED4520615
:1056A000A1D5402400F50052D4634A88560729D575
:1056B00007221A7097E71A795D8801EBC2042689E0
:1056C000AE420FD800240132D2B21A715C804C88ED
:1056D0006507C2D4E40702D4012A7FF64EAF082240
:1056E0001A7092E76268691C5980525D4263062213
:1056F000DFE7160682D455067FF575AF402400F526
:105700000052D4630522A9E794067FF56CAF2026EA
:105710001A7900F5005401EBC2010A89456AE66373
:105720005C88A24281BF4968661C5E800D5559881D
:105730008A42D4D90424012AC46004D0013A914297
:1057400001D10822C2601A78092A3FF420AF4AE743
:10575000D2057FF548AF4FF4807100F50052D16358
:1057600013E74FF609321A8011E700BF0080065098
:10577000D2A90008403800204C380020B0F1B64FC4
:1057800038B504460D4607D121B940F26A312548A3
:1057900004F050F8244B13E0244B98420DD040F213
:1057A0006931204804F046F825B940F26A311D48B5
:1057B00004F040F86FF0030038BD00292AD01C4BDC
:1057C0002269D00744BF2022E2606A88910702D58F
:1057D00029890029EED0520702D52A8A002AE9D069
:1057E0004FF480721A6000229D601A71C023E3603A
:1057F0006369DB0514D4202204F50053DA630D4AF3
:105800002046DA63236C43F4FC632364BDE838402C
:10581000FFF7A2BE40F26A31024804F00BF8CEE76F
:10582000636AE5E7D2A900084038002000800650EE
:105830004C380020FFFF1F004FF400120B4B10B537
:10584000C3F88020BFF34F8FBFF36F8F0024FF2278
:10585000074B21465C6520209A625C60FEF746FF9C
:105860002146BDE810402120FEF740BF00E100E0E6
:1058700000000450072838B504460D4603DD7721A3
:10588000084803F0D7FF1F2C03D99121064803F0E5
:10589000D1FF064A064B002D08BF13460122A24045
:1058A0001A6038BD23AA000871AA000840100450ED
:1058B0004020045010B5044618B991211F4803F048
:1058C000B9FF23781B0613F0604F03D092211B48C9
:1058D00003F0B0FFE3780F2B03D9A321174803F09F
:1058E000A9FF01212020FEF701FF01212120FEF761
:1058F000FDFE0122124B5A60227812069A606178EE
:10590000A27842EA01429A61FF229A6200229A63D7
:105910001A644FF000425A654FF0FF324FF4001105
:1059200003F500531A65074AC2F88011E3781B019A
:10593000DBB282F81533116010BD00BF23AA000846
:105940000000045000E100E02DE9F0410126C3B25F
:10595000072805460C46904606FA03F603DDEC21BF
:10596000364803F067FF1CB9ED21344803F062FFAD
:10597000236823F47C1323F00F031BB1F0212F487D
:1059800003F058FFA37A1B0413F47C0F04D040F2F9
:1059900009112A4803F04EFFE37A1B0513F07E6FCE
:1059A00004D040F20B11254803F044FF237B5B0534
:1059B00013F0FE5F04D040F20D11204803F03AFFCF
:1059C0001F4B204F1E65AB00226803F1A04303F577
:1059D00088235A60302202FB0575637B2B66E37ACD
:1059E000A27A1B0543EA0243227B43EA4253EB655A
:1059F00028F003032B6703F08DFF7B6D33437B653A
:105A0000237A13B13B6C33433B64637A13B1BB6BB2
:105A10003343BB632279A37943EA0243084A936183
:105A20006179E37943EA014307498B61054B56638A
:105A30009E64BDE8F04103F073BF00BF23AA0008D5
:105A400000200450000004500010045010B5012440
:105A5000C3B2072804FA03F404DD40F297110748A3
:105A600003F0E8FE03F056FF054B5A6D22EA0402EC
:105A70005A659C62BDE8104003F052BF23AA00089B
:105A80000000045010B50124C3B2072804FA03F43F
:105A900004DD40F2B5110A4803F0CCFE03F03AFFF2
:105AA000084BDA6A224208D15B6B9C430CBF01248D
:105AB000002403F035FF204610BD0024F9E700BFA5
:105AC00023AA000800000450F8B507460C461D46FE
:105AD00016464AB94FF4A171314803F0ABFE24B128
